:020000040800F2
:10000000C0B50120790200080B6F00086D020008DE
:10001000096F0008E1110008F999000800000000CC
:10002000000000000000000000000000AD0100081A
:100030007D1B00080000000009020008017700088D
:10004000930200089302000893020008930200083C
:1000500093020008930200089D1F00089302000805
:1000600093020008AB1F00089302000893020008E7
:10007000930200089302000893020008930200080C
:10008000B51A0008C11A000893020008930200087C
:1000900093020008930200089302000893020008EC
:1000A000C177000893020008CD770008930200088A
:1000B00093020008930200089302000893020008CC
:1000C00093020008930200089302000893020008BC
:1000D0009302000893020008A97E0008930200081A
:1000E000A31F00089302000893020008930200086F
:1000F00093020008D97700089302000893020008D1
:10010000930200089302000893020008930200087B
:10011000930200089302000893020008930200086B
:10012000CD1A000893020008930200089302000809
:10013000930200089302000893020008930200084B
:100140009302000893020008930200080D6F000854
:10015000930200089302000893020008930200082B
:10016000930200089302000893020008930200081B
:1001700093020008930200089302000800000000A8
:100180009302000893020008DFF80CD000F09EFCF8
:100190000048004779E60008C0B50120EFF3088069
:1001A0007047EFF309807047684670472C4B196819
:1001B0000868B0E8F04F80F30988BFF36F8F4FF005
:1001C000000080F3118870470000000008480068B4
:1001D000006880F308884FF0000080F3148862B64E
:1001E00061B6BFF34F8FBFF36F8F00DF00BF00BF5B
:1001F00008ED00E0DFF80C00016841F470010160D7
:10020000704700BF88ED00E0EFF30980BFF36F8F08
:10021000134B1A681EF0100F08BF20ED108A20E95A
:10022000F04F106009B44FF0500080F31188BFF315
:100230004F8FBFF36F8F12F08FF94FF0000080F3F4
:10024000118809BC19680868B0E8F04F1EF0100F5B
:1002500008BFB0EC108A80F30988BFF36F8F704736
:1002600078060020EFF3058070470000704669466D
:100270000BF03EFDFFF7FEFF0648804706480047AB
:10028000FEE7FEE7FEE7FEE7FEE7FEE7FEE7FEE746
:10029000FEE7FEE7B1770008890100082DE9F05F6D
:1002A0000546002092469B468846064681464024E5
:1002B0001BE0284641464746224600F0DEF85346FA
:1002C0005A46C01A914110D311461846224600F0F2
:1002D000C5F82D1A67EB01084F4622460120002180
:1002E00000F0BCF817EB00094E41201EA4F10104F8
:1002F000DFDC484631462A464346BDE8F09F000011
:100300000649074A0868504343F23902104408601E
:10031000400870470149086070470000C8C30120C9
:100320006D4EC64140EA01039B0703D009E008C9AE
:10033000121F08C0042AFAD203E011F8013B00F8AA
:10034000013B521EF9D27047D2B201E000F8012BF6
:10035000491EFBD270470022F6E710B513460A4645
:1003600004461946FFF7F0FF204610BD10B50446BD
:1003700004E00B7800F8013B03B1491C521EF8D28F
:10038000204610BD421C10F8011B0029FBD1801A29
:10039000704730B505460020034600E05B1C9342E1
:1003A00005D2EC5CC85C201A01D1002CF6D130BD1E
:1003B00070B5064609F0AAFC046805460A22002129
:1003C000304600F0B9F82C6070BD70B5064609F0F3
:1003D0009DFC046805460A220021304600F0ACF876
:1003E0002C6070BD0EB540F2334102910021CDE981
:1003F00000110A460B4600F00FF903B000BDC1F32F
:100400000A5210B5C1F3130140F2FF3341F48011D9
:100410009A4201DA002010BD40F233439A42A2F220
:10042000334203DC524200F028F810BD904010BD6A
:1004300030B50B46014600202022012409E021FAB4
:1004400002F59D4205D303FA02F5491B04FA02F5B1
:100450002844151EA2F10102F1DC30BD202A04DB84
:10046000203A00FA02F1002070479140C2F12003C7
:1004700020FA03F3194390407047202A04DB203A06
:1004800021FA02F00021704721FA02F3D040C2F1B4
:100490002002914008431946704700000FB4002322
:1004A00000B589B00CA900910B996FF00042CB60A8
:1004B0001E4B06931E4B07930423CDE901321D4AC0
:1004C000089202466B46002000F0C6FB09B05DF8BA
:1004D00014FB70B586B006464FF0FF300091CDE9B1
:1004E0000101002015460C4604903246694604A8D6
:1004F000FFF7D4FF02460498211825B108B1084639
:1005000000E020462860049800280DD0002A02DD73
:100510000098884208D0081B0094CDE901043246B7
:10052000694604A8FFF7BAFF06B070BD910E000837
:10053000AF0E00081D0B00082DE9F04791460F464D
:1005400080460446002614F8015B2DB100F0E2FA63
:100550000068405DC007F6D12B2D02D02D2D18D09C
:10056000641E4A463946204600F0B2FC27B139687D
:10057000A14201D1C7F8008071054FF002040BD5EC
:100580004042002803DD09F0C1FB0460A007BDE87C
:10059000F08746F48066E4E70028F8DA09F0B6FB55
:1005A00004606FF00040F2E7F0B400F0004221F088
:1005B000004120F00040CE0DC30DC1F3160141F4FF
:1005C0000001C0F316004C42154640F40000761EB0
:1005D00009E010EB440002D582F00042404288421C
:1005E000F7D840005B1EB342F9DA18B1F0BC002125
:1005F00000F0C6BC2846F0BC704710B5141E73F15D
:10060000000408DA401C41F1000192185B411A43D2
:1006100001D120F0010010BD2DE9F04D92469B461E
:1006200011B1B1FA81F202E0B0FA80F220329046C4
:10063000FFF714FF04460F4640EA0A0041EA0B01A7
:1006400053465A46084313D0114653EA010019D0C5
:10065000C8F140025046FFF710FF05460E465046CF
:1006600059464246FFF7FAFE084305D0012004E050
:1006700020463946BDE8F08D0020054346EAE07685
:100680002C4337430A986305E40AA0EB08000022D4
:10069000FD0A44EA47540A3002D500200146E9E742
:1006A000010510196941DDE9084500196941BDE8F6
:1006B000F04DA2E72DE9FE4F804681EA0300C00F0E
:1006C0000C46009021F0004123F00045B8EB0200F9
:1006D000A94105D24046214690461C460B4602469B
:1006E00023F00040104347D0270DC7F30A00C3F39F
:1006F0000A510290401A019040286BDAC3F31300AC
:1007000040F4801B0098924620B10023D2EB030AEC
:1007100063EB0B0B01985946C0F140025046FFF7BE
:100720009DFE06460D4650465946019A00F0E0F9F6
:1007300010EB08006141002487EA115284EAE77354
:100740001A4340D0009A62B3019A012A4FEA075235
:1007500015DC001B61EB02014FF0004202EA075278
:10076000CDE90042001C41F5801132462B46FFF7CF
:1007700053FF03B0BDE8F08F40462146F9E7001B68
:1007800061EB0201001C41F5801300185B41201849
:10079000A2F5001747EB030140EAD570B6196D4189
:1007A00011E06D084FEA360645EAC0754FEA075278
:1007B000001B61EB0201001C41F5801149084FEA62
:1007C00030000019514132462B4603B0BDE8F04FCE
:1007D000FFF713BF0098012240000023D0EB020274
:1007E00063EBE073009821464FEAE074B8EB000039
:1007F00061EB0401E9E783F000435BE781F000412E
:1008000058E72DE9FE4F81EA030404F0004421F08B
:10081000004100944FF0000B23F0004350EA010424
:100820005ED052EA03045BD0C3F30A54C1F30A5505
:100830002C44A4F2F3340194A0FB0254C1F313013D
:1008400041F48011C3F3130343F4801301FB02440A
:1008500000FB034E840A970A44EA815447EA83570F
:10086000A4FB076802958D0A05FB07854FEA932CC8
:1008700004FB0C542705029D4FEA065847EA163739
:10088000B5EB08056EEB070C870E920E47EA811751
:1008900042EA8312A7FB0201B6EB0B0164EB0004F2
:1008A0002B0D43EA0C335E1844EB1C50DA465146DC
:1008B000E7FB0201C5F313044FEA0B3343EA145379
:1008C0004FEA0432019C43EA0603A4F10C040294AB
:1008D000009CCDE900B4FFF79FFE03B0BDE8F08FA8
:1008E00000200146F9E72DE9F04D81EA030404F008
:1008F000004B21F0004514464FF0000A23F0004160
:1009000050EA050220D054EA01021DD0C5F30A576F
:100910000246C5F31303C1F31300C1F30A5640F4B2
:10092000801543F48013A7EB0608101BD64608F287
:10093000FD3873EB050002D308F1010801E09218BD
:100940005B41B8F1000F03DA00200146BDE8F08DED
:1009500000204FF48011064684460EE0171B73EB0F
:10096000050705D3121B63EB050306434CEA010C94
:1009700049084FEA300092185B4150EA0107EDD177
:1009800052EA030012D082EA040083EA0501084318
:1009900005D0101BAB4106D20122002306E0002245
:1009A0004FF0004302E06FF0010253101AEB060013
:1009B0004CEB085110EB0A0041EB0B01BDE8F04D88
:1009C000FFF71BBE2DE9F04D00231A461B1A8A4182
:1009D00003DB00200146BDE8F08DC1F30A52C1F3EC
:1009E000130141F480154FF0000BD10702D100181C
:1009F0006D41521E0027044640F2FF11384601EBBC
:100A0000620A3E468046024600204FF48011FFF7FE
:100A100034FDC2197141BB1846EB0100B4EB030C65
:100A200075EB000C04D3E41A65EB000517460E467F
:100A3000241908F101006D4180463428E3DDF919DD
:100A400046EB0600091BA84103D24FF0FF321346C4
:100A500001E0002213461BEB070046EB0A51BDE8FC
:100A6000F04DFFF7CABDC1F30A52C1F3130140F2C2
:100A7000FF3341F480119A4202DA002001467047A8
:100A800040F233439A42A2F2334202DC5242FFF771
:100A9000F4BCFFF7E3BC000030B5041E71F10004A4
:100AA00004DB4FF00044404264EB0101141E73F17B
:100AB000000405DB1C464FF00043524263EB040385
:100AC000994208BF904230BD00207047064C074D48
:100AD00006E0E06840F0010394E80700984710340E
:100AE000AC42F6D3FFF754FB8C7D0108CC7D0108A6
:100AF000202A06DBCB17203A41FA02F043EAE073E2
:100B000006E041FA02F3D040C2F1200291400843CE
:100B10001946704700487047D06E010810B504466A
:100B2000FFF7F8FF0068005D00F0010010BD000055
:100B30002DE9FF4F087883B09946FF2805D0491C5E
:100B40002D2804D00024002008E000200BE0012420
:100B5000F9E700EB800003EB4000491C0B78FF2B0A
:100B6000F7D104B1404200230293147819461D4680
:100B70002D2C01D02B2C04D1521C2D2C13D0002451
:100B80000294AA461478FF2C0FD00A25A3FB0578FF
:100B900001FB05814FF0000C03FB0C11521CE31903
:100BA0004AEB0101EEE70124EAE7814453EA010040
:100BB00002D019F5C87F06DA03980021C0E90011B8
:100BC00007B0BDE8F08F0025AE4E2F46DFF8B882A3
:100BD000184600F011FACDE90001B9F1000002DA7F
:100BE000C9F1000400E004460023A74A1AEB030BF6
:100BF00042EB045A12E0E00707D02A463346384653
:100C00004146FFF7FEFD074688462A463346104612
:100C10001946FFF7F6FD05460E466410002CEAD192
:100C2000DDE90001B9F1000F5A46534606DAFFF735
:100C30005AFE3A464346FFF756FE05E0FFF7E1FD50
:100C40003A464346FFF7DDFD029A0AB181F00041C2
:100C5000039AC2E90001B3E72DE9FF4F1F468DB0AB
:100C6000D7E901464FF0FF382E2045464FF00009E6
:100C70000B90B9696D1C0E988847396A824688477F
:100C80000028F6D1BAF1FF3F0AD024F4D064002E38
:100C900011DDBAF12B0F08D0BAF12D0F0BD102E004
:100CA000404611B08DE744F48064B9696D1C0E981C
:100CB00088478246761E6946600501D52D2000E0F2
:100CC0002B208DF8000001F1010B0DF1200809E047
:100CD000B9696D1C0E98884782460F9844F40074D9
:100CE000761E0560002E02DDBAF1300FF0D00B99B0
:100CF0008A453ED144F0800406E00F99681CA9F1B2
:100D0000010944F400740860B9696D1C761E0E98E0
:100D1000884782463028F0D02BE00B998A4505D1D0
:100D2000200603D444F08004761E18E050460AF0F2
:100D300069F908B30DF11301761E44F400748B4574
:100D400008D2AAF130000BF8010B200607D5A9F153
:100D5000010003E0200602D409F101008146A0054C
:100D600002D50F99681C0860B9696D1C0E988847F8
:100D70008246002ED1DC53E0002E51DDBAF1650F22
:100D800002D0BAF1450F4BD1A00549D5B9696D1C08
:100D900024F44074761E0E9888478246002E0CDD9F
:100DA0002B2804D0BAF12D0F07D144F48074B9690F
:100DB0006D1C0E9888478246761EE00501D52D21D0
:100DC00000E02B2108F8011BCDF82C8021E00DF16B
:100DD0002901761E44F4007488450CD2AAF1300033
:100DE00010F0FF0088F8000002D10B99884509D95E
:100DF00008F1010806E0E00501D5244801E042F2CF
:100E00000F708146B9696D1C0E98884782460F980D
:100E10000560002E04DD50460AF0F4F80028D6D113
:100E2000F9690E988847FF208BF8000088F80000C9
:100E30000020069007904B466A4608A906A8FFF7CF
:100E400077FEA00502D46FF001002AE714F0240F0A
:100E50000AD0E00714D1DDE906123868031D3B60B3
:100E60000068C0E900120BE0DDE9060100F0D0F8EF
:100E70000146E00704D13868021D3A60006801604D
:100E800028460EE7000014400000F03FF1D8FFFFB5
:100E9000426842B1016811F8013B23B1521EC0E91A
:100EA0000012184670470121C160881E70474268D1
:100EB0005AB1C368016843B983688B4205D0491EA3
:100EC000521CC0E90012002070474FF0FF307047FD
:100ED0002DE9F05F82460078002715468B460AF11F
:100EE0000104B946302801D09DB113E014F8010B7C
:100EF0000127782803D0582801D045B10AE00DB168
:100F0000102D07D10027102514F8010B02E0082549
:100F100000E00A250026B0460EE005FB080005FBB0
:100F200006F1012701EB10461FFA80F8B6F5803F65
:100F300000D3B94614F8010B294600F04FF80028F9
:100F4000EBDABBF1000F05D00FB1641E00E0544690
:100F5000CBF80040B9F1000F06D008F0D7FE02210F
:100F60000160C81EBDE8F09F48EA0640FAE7002984
:100F7000A8BF7047401C490008BF20F0010070471F
:100F800010B4B0FA80FC00FA0CF050EA010404BF7F
:100F900010BC704749B1CCF1200421FA04F411FAD5
:100FA0000CF118BF012121430843A3EB0C01CB1D19
:100FB0004FEA00614FEA102042BF002010BC70478A
:100FC00000EBC35010440029A4BF10BC7047401C64
:100FD000490008BF20F0010010BC70473A2800D239
:100FE000303820F02002412A01D3A2F13700884294
:100FF00001D34FF0FF3070470EB540F233420292FA
:101000000022CDE900221346FFF706FB03B000BD26
:1010100001F0004330B421F0004150EA010206D053
:101020000A0DA2F56072C1F31301002A02DC30BC84
:1010300000207047440F44EAC104C100E01830BCEE
:1010400000EBC250FFF793BF70B58C1810F8015B2E
:1010500015F0070301D110F8013B2A1106D110F851
:10106000012B03E010F8016B01F8016B5B1EF9D155
:101070002B0705D40023521E0DD401F8013BFAE7DB
:1010800010F8013BCB1A921C03E013F8015B01F846
:10109000015B521EF9D5A142D8D3002070BD0000DB
:1010A000464910B54A6822F440324A604A684368AB
:1010B0001A434A6001684A6822F480724A600168F3
:1010C0004A68036942EA03224A6001684A6822F0DA
:1010D00040724A6001684A6883681A434A6001683E
:1010E0008A6822F400628A6001688A68C3681A43C9
:1010F0008A60816A6FF07062D14201688A6822F06A
:1011000070628A6001688A680CD0836A1A438A60B8
:1011100001688A6822F040528A6001688A68C36A5E
:101120001A4301E022F040528A6001688A6822F086
:1011300002028A6001688A68037E42EA43028A608A
:1011400090F82010002901684A680FD042F400622C
:101150004A6001684A6822F460424A6001684A684D
:10116000174C436A04EB43331A4301E022F4006254
:101170004A600168CA6A22F47002CA620168CA6AD7
:10118000838B104C04EB03531A43CA6201688A68CC
:1011900022F400728A6001688A6890F8303042EA6E
:1011A00043228A6001688A6822F480628A6001684A
:1011B0008A68406942EA8020886010BD00230140AF
:1011C00000E0FFFF0000F0FF0021014804F0B6BA84
:1011D00088DB01200021014804F04CBA88DB0120A3
:1011E000FEE7000010B5074C2078002808D002F078
:1011F0006DF86168884203D3FFF7E6FF0020207096
:1012000010BD000028C2012010B50446FFF7E2FF20
:1012100002F05CF80119024841600121017010BD23
:1012200028C20120002070470020704710B500221E
:101230000449054807F024F80449034807F013F867
:10124000002010BDBCA90120E0EB0120BCA10120C1
:1012500010B50A680446014607480DF0BBF902F0D4
:1012600035F8064908602146054806F0FCFF0448A9
:1012700006F0D2FF002010BD2C4700206C0000209B
:10128000E0EB0120002070472DE9F04107460F48B0
:101290000E46D0F8BC5202F019F8044608E000BF30
:1012A00002F014F8001B142802D90120BDE8F081D7
:1012B000D5F814020028F3D132463946034806F027
:1012C000DFFFBDE8F041014807F054B8E0EB012032
:1012D00030B52DED0A8BB0EE408A81B09FEDFE0A4D
:1012E0009FEDFEBAB3EE0E1AF7EE008A68EE014AE1
:1012F000B9EE041AB1EE04CA28EE014A38EE681AB3
:1013000068EE0B1AF64ABFEE00AA61EE0C3A4FF0F7
:101310007C54F1EE00BA9FEDF31AB6EE009A38EE67
:10132000C82A38EE493AF2EE025ADFEDEF6A9FED35
:10133000EF6AF0EE007AF0EE682AED4D58EE272ABB
:10134000F2EE0A9AB0EE627ADFEDEA2A60EE89AA3E
:1013500068EE222A62EE882A22EE885A68EE272A50
:1013600002EEC85A35EE085A25EE295A08EE275AD9
:1013700025EE0B5ADFEDE09A24281AD2DFE800F0C0
:10138000F6121212192035383F556471787B848F1C
:1013900096ADC4F5F4DDF7F2F1F0EFEEEDECEBEA2B
:1013A000E9E9E8E7B4EEE08AF1EE10FA05D2B7EE2B
:1013B000000A01B0BDEC0A8B30BDBFEE000AF8E7B1
:1013C000B4EEE08AF1EE10FA08D288EE201AF0EEC0
:1013D000000AB0EE680A11EE200AEAE738EE600A69
:1013E00038EEE01AC0EE010A4EE1B0EE470AE0E73F
:1013F000F0EE000AB0EE680A08EE600AD9E79FED49
:10140000BF9A88EE090A08F097FD60EE090A10EE0F
:10141000900AA04204DAB0EE680A10EEAB0AC8E700
:10142000B0EE080A00EEEB0AC3E7B3EE0E8AB0EEA8
:10143000640A08F081FDF0EE000A20EE200AC0EEFA
:10144000080A30EE8A0AB4E7B3EE0E8AB0EE640AF8
:1014500008F072FDF0EE000A20EE200AC0EE080A45
:1014600038E0B0EE440A08F073FC78EEC00ABDE044
:10147000B0EE440A0AE0B0EE630A08F069FCF0EE50
:10148000000A40EE608A07E0B0EE630A08F060FCF4
:10149000F0EE000A50EE208AB0EE680A89E718EEF6
:1014A000100A90421FDBB0EE481A1CE018EE100A3A
:1014B000904201DBB0EE481A21EE250A08F0CCFD7F
:1014C000F0EE000A20EE208AB2EE020A08F0C4FD17
:1014D000C8EE000A38EEE00A6BE712EE100A9042FE
:1014E00001DBB0EE421A21EE250A08F0B5FDF0EE60
:1014F000000A20EE208AB2EE020A08F0ADFDC8EE26
:10150000000A30EEE80A54E712EE100A904201DBBE
:10151000B0EE421A21EE250A08F09EFDF0EE000A18
:1015200020EE208AB2EE020A08F096FDC8EE000A0C
:1015300030EEE80A38EEC00A3BE7B0EE610A09F087
:101540008FFAB5EEC00AF1EE10FAA7DC18E09FE1C1
:1015500096E163E169E186E14FE031E076E09DE00C
:1015600076E125E11FE002E014E00CE06DE1B0EE71
:10157000610A09F075FAB5EEC00AF1EE10FA8DD3E2
:101580009FED550A15E7B0EE610A09F069FAB0EE71
:10159000C00A0EE7B0EE610A09F062FAB0EEC00AC6
:1015A000B1EE400A05E783EE290AF0EE680AB0EED4
:1015B000001A40EE000A81EE200A30EE680AF8E6D2
:1015C000B2EE040A4E4923EE000AF0EEC00A10EE15
:1015D000900A884202DAF0EE680A07E020EE268AD6
:1015E000B0EE480A09F03CFAC0EE080AB0EE001A64
:1015F000B0EE680A10EE810ADBE680EE8C0ADFEDC1
:10160000410AB6EE082AB0EEC31A70EE200AB5EE13
:10161000000A38EE400A60EE890AF0EEC01A38EE91
:10162000420AF4EEE10AB0EEC02AB0EE4A0AF1EE48
:1016300010FAA5DCF4EEC10AF1EE10FA3FF723AF81
:10164000F4EEC20AF1EE10FA9ADCB2E618EE100AD5
:101650002D4988421FDB18EE100A2C49884204DA13
:1016600038EE690AC0EE290AC0E718EE100A2849C8
:101670008842FFF608AF18EE100A264988420ADAB7
:1016800038EE460AC0EE290AB0EE001AB0EE680A3B
:1016900000EEC10A8DE6B0EE4A0A8AE618EE100A9C
:1016A0001D49884208DADFED1D0A81EEA00A09F023
:1016B000D7F9DFED1B0A78E018EE100A19498842C5
:1016C0009ADB18EE100A184988423ADA9FED170A99
:1016D00078EE400A2CE0000000000000DB0FC9405B
:1016E0006F12833A6F12833ADB0F49409A99193F80
:1016F000000080BFABAAAA3FCDCC4C3E8988083DF4
:10170000BD378635CDCC4C3DCDCC4C3ECDCCCC3E42
:101710009A99193FCDCC4C3FCDCCCC3DCDCCCC3DD6
:101720009A99193E0AD7233EEC51383E0AD7233EF8
:101730009FED631A80EE810A38EEC00ADFED610A80
:1017400033E018EE100A6049DFED600A884206DADD
:101750009FED5F0A38EE401A81EE200A29E618EE66
:10176000100A5C4988420ADA9FED5B0A38EE400AAB
:1017700080EE201A38EEC10ADFED580A15E018EEA7
:10178000100A5749884285DB18EE100A55498842ED
:10179000E4DA9FED550A38EE400A60EE0B0A80EE5F
:1017A000A90A09F05DF9DFED510A20EE200A00E6F2
:1017B00040EE869A5FED38AA4DA000240068B0EE96
:1017C0006A9A009000EE104AF8EE400AB0EE690AFC
:1017D00008F014FE1DF80400F0EE40BA00EE100A06
:1017E000B8EE400A20EE0B0A20EE080A09F038F99C
:1017F0004BEE80AA39EE2B9A641CE4B2042CE1D3A0
:101800008AEE890A10EE100AB0F17E5F3FF73BAE18
:1018100010EE100AA8423FF63EAFCAE5A9B1B0EEFD
:10182000450A00BF09F01CF9C3E571B128EE260A8C
:1018300009F016F960EE008A9FED2E0A28EE000AE4
:1018400009F00EF928EE800AB3E5B0EE610AE9E787
:10185000FEF756FD00EE100ADFED270AB8EEC00ACB
:1018600060EE200AC2E60BF05FFFF0EE400AB0EE39
:10187000081A80EE810AF0EE400A10EE900AC3E7E3
:1018800018EE100AA042BFF606AF22EEAB0A07E040
:1018900018EE100AA042F6DAB2EE000A22EE800A32
:1018A000F7EE000A08F080FB30EE490AB0EEC00AFD
:1018B000B4EEEA0AF1EE10FABFF4EDAEECE500008A
:1018C0000AD7A33C9A9999BEAE47613E0AD7233DF9
:1018D000EC51383EB81E853EAE47613ECDCCCCBE05
:1018E0003333B33ECDCC0C3F3333B33E9A99993E5C
:1018F00001030507E4CB964200000030002110F000
:1019000091BE00002DE9F74F82B0894602983E4B08
:10191000934601683D4841F6FE74B0FBF1F639B1DB
:10192000C1EB01325200824200D90246B2FBF1F60D
:10193000082E01D2082602E0A64200D9264606FB60
:1019400001F0B3FBF0F79A4637B14FF480384745C2
:1019500004D800257C1E1FE00127FAE73846FEF771
:1019600041FD41EC100B09F043F951EC100BFEF76F
:1019700046FD451E4FF6FF70454500D30546691CE0
:10198000B7FBF1F4641E444506D3B7FBF8F56D1EB2
:101990000446454500D305465FEA0B0000D0012010
:1019A000C0EB00311A4801AA00EB810739460196C5
:1019B000029800F05FFD484603F048FB5946154881
:1019C00001F020F95946134801F00CF9D9F800004C
:1019D0008562D9F80000C462C9F80C40002000906C
:1019E0003A4659460B48019B01F08CF808B100F0CB
:1019F000DFFA641C6D1C6543BAFBF5F0B0FBF6F032
:101A000005B0BDE8F08F000000BD010540420F00A9
:101A10003EC70020D8D7012009B100F03FB800F040
:101A200033B810B5846B204600F0EAFF0120207126
:101A300010BD10B5846B204600F0B8FF0120207166
:101A400010BD10B5846B206940F004002061204671
:101A500000F0D8FF0120207110BD10B5846B206903
:101A600040F004002061204600F0A2FF0120207118
:101A700010BD10B5806B00F0C4FF10BD10B5806BB9
:101A800000F095FF10BD000018B11021024801F0D0
:101A9000B9B80021FAE70000D8D70120044A00EBCA
:101AA000400102EB81020146104605F0B5BD000081
:101AB0000CC00120014801F029B90000ECD7012039
:101AC000014801F023B900004CD80120014801F081
:101AD0001DB90000845F012001681823CAB2103AC2
:101AE000B2FBF3F2054B6FF30901032A9B5CC3655C
:101AF00000D9091D81650846704700001C6C01086B
:101B000010B5014600208B698A6A4FF0C07453B14A
:101B1000B3F5005F15D072B1012A0CD0022A0AD0A9
:101B2000032A09D104E01AB1012A06D0022A03D1FE
:101B3000C96AC90100D5012010BDC96AA142FAD005
:101B400010BD002AF7D0012AF2D0022AF3D0032ACE
:101B5000F3D010BD30B50468256825F480252560D4
:101B6000046863608368402B036803D09960006851
:101B7000C26030BD9A600068C16030BD704700002F
:101B80000AF096FB05A207A108A00AF009FA00BF17
:101B90000AF0A2FB01200DF0FBF8F9E756302E31D8
:101BA0002E30000056312E302E30000070726F6AD9
:101BB0006563740070B5054C05462078FFF79EFEFE
:101BC0000121284610F02EFD257070BD8CC001202B
:101BD0001CB50821CDE90010EF23FA220C210620C4
:101BE00004F020F91CBD1CB50424CDE900401723E6
:101BF000C42201210E2004F015F90020CDE9004097
:101C00001623C32202210F2004F028FA1CBD1CB5A4
:101C10000424CDE90040A723C42291210E2004F022
:101C200001F90020CDE90040A623C32292210F2014
:101C300004F014FA1CBD2DE9FC414FF4837C4FF4F1
:101C4000A376052812D2DFE800F00306090C0F0086
:101C500006252A240AE036255A2407E066258A2428
:101C600004E09625BA2401E0C625EA240827CDE938
:101C70000071234632462946604604F0EFF9002001
:101C8000CDE90070A41EA3B2A91C4FF484703246A3
:101C900004F0E4F9BDE8FC811CB50424CDE9004062
:101CA0001723F2220121CA2004F0BCF80020CDE95C
:101CB00000401623F1220221CB2004F0CFF91CBDF5
:101CC00038B51F248C22832324211046009404F06D
:101CD0009FF88323F22219468C20009404F098F890
:101CE0000F4B5F2265210F4800F092FC0C4B0D4812
:101CF000CA331C465F2265210C3000F089FC652246
:101D00004FF6E07106480AF013FE652247F6FF71B0
:101D100020460AF00DFEBDE8384010F0BFBC0000C0
:101D2000384801200CC001202DE9F84F394E307899
:101D300050B300246522002137480AF0F9FD3648E7
:101D40006522CA30002182460AF0F2FD3178334F15
:101D500001EB410007EB8000DFF8C480C27A2E4D12
:101D600041F6FE79242A11D3652011FB00F005EB22
:101D70004000C1EB0131009008EB81005F23652238
:101D8000494600F02BFB0AE00124D3E7652211FB52
:101D900002F105EB41035F22652100F039FC04EB01
:101DA000440007EB8000C17A24290FD3652014FB7F
:101DB00000F005EB4000C4EB0431009008EB81001B
:101DC0005F236522494600F009FB08E0652114FB0A
:101DD00001F105EB41035F22652100F019FC307829
:101DE00047F6FF744FF6E0754FF0650250B1294693
:101DF00009480AF09DFD652221465046BDE8F84F8E
:101E00000AF096BD214650460AF092FD6522294609
:101E10000148F3E798C10120384801200CC0012097
:101E20003EC70020F0B591B00746002000904FF665
:101E3000E07447F6FF7614239A2204213A2004F036
:101E4000C7F8184D287800B1344617B14FF47846DA
:101E500000E0002600EB4001134800EB8100C07A4F
:101E600024280BD32338C7B23A4610A101A807F0A3
:101E7000EDFE297838460CF0F5FA06E00E4951F8E7
:101E800020200EA101A807F0E1FE01A90CA007F097
:101E9000CDFE234601AA04213A20009605F0EAFA75
:101EA00011B0F0BD98C101200CC00120C8CED2E213
:101EB000B2A825640000000004C1012025730000C1
:101EC00077617665203D2025730A000038B50E4CF9
:101ED00000208DF80000B4F90400B4F90210884223
:101EE00011D002DD4FF0100001E04FF011008DF82D
:101EF000000006484FF000031A46694600680CF0DF
:101F0000E1FFA088608038BDA0000020C0C1012092
:101F10002DE9F0414FF48057B84223D11D4E394688
:101F2000304601F0C1F91C4C00254FF4005808B9A7
:101F3000207868B13946304601F0B6F9012811D150
:101F4000207801280ED12570607801280CD013E08C
:101F50000127277065704146304601F0A5F9012838
:101F600000D16770BDE8F0814146304601F09CF930
:101F700010B9A088401CA08060780028F2D14146AA
:101F8000304601F091F90128ECD1A088401EA080D4
:101F9000E8E70000000C0240A0000020012001F052
:101FA0007FB84FF4805001F07BB8082001F078B87A
:101FB00072B6FEE730B5B3F5804F05D06FF07041D3
:101FC00040F82210002030BD8C690B688D682343D7
:101FD0004C688989240144EA0524234343EA0141EA
:101FE00050F82230014C23401943E9E70000F0CFBC
:101FF00010B50A6850F8223023F0010340F822306F
:102000008C68082C23D000234A682243CC681C43E8
:102010000B6922431A434B690E4C1A43CB691A438E
:102020000B6A1A434B6A1A438B6A1A43CB6A1A43E8
:102030000B6B1A438B691343CA6B09681A4350F838
:102040002130A343134340F82130002010BD40232A
:10205000DAE700007FFF0F0030B5D1E9003443EA32
:1020600004138C688D89240244EA054423430C8AB6
:10207000074D00EB820005EB045423430C7D6D01FA
:1020800005EB0464896923430B434360002030BDA2
:102090000000F0FF08B54FF47A700CF079FE0A48A2
:1020A00002F058FF10F0AEFF0090084802F08EFFDB
:1020B00005F020FC0BF068FC4FF47A7110FB01F185
:1020C000684610F063F9F3E700D90120F8DA01203F
:1020D000FEB5044621B14FF6FF774FF4784502E094
:1020E00048F2304700256226012C18D0022C18D067
:1020F0000DA101A807F0AAFD04EB440006EB0016B1
:102100003B4601AA214609A0009507F08FFD3B46FA
:1021100001AA94213046009505F0ACF9FEBD0AA154
:10212000E7E70AA1E5E700003153000047415445C5
:102130005F74696D655F7365743D25642025732048
:1021400025642025640A00003130530031303053BB
:10215000000000002DE9FF4F044682B0B120CDE918
:1021600000409A4600274FF0800900BF2B48049A90
:1021700007EB071110F811301278934238D100EBB9
:10218000410B04989BF801104078814230D1102314
:102190001A462046039904F0E1F804F06DF9002690
:1021A00000250BEB060800BFBAF1000F98F80210EB
:1021B00029FA05F001EA00010BD019B12046039974
:1021C00003F018FE641C0098A4B2201A10281ED038
:1021D00006E0134809B1008800E0408811490880F2
:1021E0006D1CEDB2082DDFD3761CF6B2202ED7D3AE
:1021F0007F1C0198BFB28742B8D30B4800214388A7
:10220000028806B00846BDE8F04F04F0A7B803986E
:10221000009C401C80B20390E6E700005C4D010882
:10222000A600002000000260D46001202DE9FF4FCD
:10223000044682B00620CDE900409A4600274FF0C0
:10224000800900BF07EB870000EB47122A4804997A
:1022500010F8123009788B4239D100EB420B049808
:102260009BF801104078814231D118231A4620464C
:10227000039904F073F804F0FFF8002600250BEB37
:10228000060800BFBAF1000F98F8021029FA05F00D
:1022900001EA00010BD019B12046039903F0AAFD11
:1022A000641C0098A4B2201A18281FD007E0124816
:1022B000001F09B1008800E04088104908806D1CAB
:1022C000EDB2082DDED3761CF6B2482ED6D37F1C95
:1022D0000198BFB28742B5D30948002143880288DC
:1022E00006B00846BDE8F04F04F038B80398009CEB
:1022F000401C80B20390E6E7AA00002000000260C4
:10230000D46001202DE9FF4F044682B00820CDE9BA
:1023100000409A4600274FF0800900BF2B48049ADE
:1023200007EB871110F811301278934238D100EB87
:10233000410B04989BF801104078814230D1202352
:102340001A462046039904F009F804F095F800268F
:1023500000250BEB060800BFBAF1000F98F8021039
:1023600029FA05F001EA00010BD019B120460399C2
:1023700003F040FD641C0098A4B2201A20281ED04F
:1023800006E0134809B1008800E040881149088040
:102390006D1CEDB2082DDFD3761CF6B2802ED7D39C
:1023A0007F1C0198BFB28742B8D30B4800214388F5
:1023B000028806B00846BDE8F04F03F0CFBF03988F
:1023C000009C401C80B20390E6E7000066020020FB
:1023D000A600002000000260D4600120F0B50028B3
:1023E000059F44D0002F42D0002940D0022B3ED37D
:1023F00000249FED1F1A5E1E37E000BF00EE101A8A
:10240000F8EE400A00EE102AF8EE401A80EEA10A1B
:1024100000EE904AF8EE600A20EE800ABCEEC00A98
:1024200010EE105A8D4200D34D1E30F8155000EEBC
:10243000105AF8EE400A80EE810AF7EE000A70EEBC
:10244000C00A00EE106AB8EEC00A20EE800ABDEEA7
:10245000C00A10EE105A2DB2002D00DA00259D4260
:1024600000DB35B227F81450641C9442C6D3F0BD8B
:1024700000F07F452DE9F0410F462DED068B05005C
:102480007DD0002F7BD0002A79D028680124D0B1DC
:10249000DFED530A00EE100AB8EE400A9FED511A24
:1024A000514B20EE010A10EE101A994201DDB0EEF8
:1024B000600A00EE900AF8EE600A80EE201ABCEE88
:1024C000C10A10EE104A41F6FE70082C01D2082411
:1024D00002E0844200D904461460A88800EE100A85
:1024E000E888B8EE40AA00EE100A287AB8EE409AC2
:1024F00000EE100AB8EE400ADFED3C0AB5F809001C
:102500003C4AC0EE208A00EE100ADFED390A3A4953
:10251000B8EE400AC0EE20AA18EE900A904202DA05
:10252000DFED368A05E018EE900A884201DDDFED26
:10253000348A0026F7EE009ADFF8C8804AE000BF30
:1025400000EE106AF8EE400A00EE104AB8EE401AAB
:1025500080EE810A30EE2A0A10EE100AB0F17E5F9A
:1025600001DB30EE690AB5EEC00AF1EE10FA01D2D5
:1025700030EE290AE87A0021F0EE680A00E02BE04C
:10258000FEF7A6FEE87AB0EE498A042801D00AEEEA
:10259000008AB5EEC08AF1EE10FA01D29FED1A8AD8
:1025A00098ED000AB4EEC08AF1EE10FA01DDB0EE4B
:1025B000408ADFED160A68EE200A80EE801AB6EE39
:1025C000000A31EE000ABCEEC00A10EE100A27F82D
:1025D0001600761CA642B3D3BDEC068BBDE8F08195
:1025E0000024744900F0FF45002474490000C842EB
:1025F0000000B4436F12833A77BE7F3F6F12833A75
:1026000077BE7F3F00C001200000000000F07F4542
:102610002DE9F04798462DED068B16460F4604002F
:102620007ED0B8F1000F7DD0002F7BD0022E79D361
:10263000A088DFED3E0A00EE100AE0883D4AB8EEC1
:10264000409A00EE100A207A3B49F8EE408A00EEEC
:10265000100AB4F80900B8EE400A80EE208A00EEB5
:10266000100ADFED330AB8EE400AC0EE209A18EEE9
:10267000100A904202DA9FED318A05E018EE100A46
:10268000884201DD9FED2E8A00EE106ADFF8B490DB
:102690000025B8EE400AD9ED000AB7EE00AAC0EE58
:1026A00020AA3BE000EE105AF8EE400A00EE107A45
:1026B000B8EE401A80EE810A30EE290A10EE100AB8
:1026C000B0F17E5F01DB30EE4A0AB5EEC00AF1EEF2
:1026D00010FA01D230EE0A0AE07A0121F0EE480A3F
:1026E000FEF7F6FDE07AF0EE680A042801D049EE24
:1026F000000A99ED000A30EE600A20EE2A0ABDEECB
:10270000C00A10EE100A00B2002800DA0020B04221
:1027100001DB701E00B228F815006D1CBD4200E000
:1027200000E0BFD3BDEC068BBDE8F0870000C842D7
:102730000000B4436F12833A77BE7F3F6F12833A33
:1027400077BE7F3F00C001200149D1E900017047F9
:10275000A0C1012078B50024009490F83C20012A03
:1027600019D0012280F83C200A6807230568092A4D
:1027700013D9EE680A3A02EB420293409E43EE60A0
:102780000B788A680A3B03EB43039A400368DD68D1
:102790002A43DA6010E0022078BD2E6902EB420283
:1027A00093409E432E610B788A6803EB43039A4063
:1027B00003681D692A431A614A681F23072A13D236
:1027C00005686E6B521E02EB820293409E436E635D
:1027D0000B790A885B1E92B203EB83039A4003686D
:1027E0005D6B2A435A6327E005680D2A12D22E6BCF
:1027F000D21F02EB820293409E432E630B790A881C
:10280000DB1F92B203EB83039A4003681D6B2A43DC
:102810001A6311E0EE6A0D3A02EB820293409E4386
:10282000EE620B790A880D3B92B203EB83039A4068
:102830000368DD6A2A43DA62164B0568144A9D4232
:1028400006D10D68122D03D1556845F480055560F9
:1028500005689D4218D10B68102B01D0112B13D1A4
:10286000536843F400035360096810290CD10A49E6
:102870000A4A0968B1FBF2F101EB8101490000E06D
:10288000491E00910029FBD180F83C40002078BD12
:102890000023014000200140DCC2012040420F0023
:1028A00070B504004FF0000503D0206C002610B175
:1028B00007E0012070BD204600F01CF8666484F833
:1028C0003C60206CC00610D4206C20F4885040F08E
:1028D000020020642046FEF7E3FB6664206C20F0D3
:1028E000020040F00100206400E0012584F83C6013
:1028F000284670BD70B586B0064614216846FDF7BF
:102900002AFD24493068884242D1234800250168C5
:1029100041F48071016000681F4900F4807014392F
:102920000590086840F004000860086800F00400A2
:102930000590086840F0020008600868032400F071
:102940000200059001208DE831006946134800F02F
:10295000B3FB009469461248CDE9014500F0ACFB99
:10296000114C1048C4E900050015A560C4E90350E6
:10297000400060618000A0614011C4E90705204665
:10298000656200F093FA08B1FFF712FBB463A66327
:1029900006B070BD002001404438024000080240EB
:1029A0000004024010640240845F012070477047B9
:1029B000704770B500B3F9B14379012B1ED00126E1
:1029C00046710223037105682C6802F0100340F67B
:1029D000FE729A409443D1E900210A439A4022436F
:1029E0002A6001680A68C0249C40A2430A600671FC
:1029F00000214171084670BD012070BD022070BDEC
:102A000070477047704770B5040003D020790025E7
:102A100010B105E0012070BD6571204600F008F896
:102A200002202071256101202071002070BD00006E
:102A30002DE9F04F87B0064614216846FDF78BFC60
:102A40002B493068884250D12A480025016841F05E
:102A500000510160006800F00050059025481038D2
:102A6000016841F0010101600068694600F0010061
:102A70000590302000900320CDE901051E4800F0AC
:102A80001BFB1F4C1D484FF060674FF0400884E867
:102A900081010015C4E903504FF4807BC4E907B5F8
:102AA0004FF400694FF4005A6562C4E9059A204664
:102AB00000F0FCF908B1FFF77BFAB460A663104C94
:102AC0000E486034183084E881010015C4E90350D1
:102AD000C4E907B56562C4E9059A204600F0E6F945
:102AE00008B1FFF765FAF460A66307B0BDE8F08FA0
:102AF00000740040403802400000024088600240FC
:102B0000ECD701202DE9F0410400069817460D4648
:102B10001BD0617901291BD0012666710221217128
:102B2000C5B1E2682949D163E26829491164E268C4
:102B30002849D16421680A6842F080520A6040B393
:102B40002268042828D01C3227E00120BDE8F0814B
:102B50000220FBE7A2682049D163A2681F491164E3
:102B6000A2681F49D16421680A6842F480520A6051
:102B700020B12268042804D0103203E02268083211
:102B800000E00C322068016841F400510160A06847
:102B900009E02268143200E018322068016841F030
:102BA00000510160E068394600F0EAF900216171E6
:102BB00020B1216941F004012161C7E721680A6859
:102BC00005F010039E4032430A60BFE7331A000845
:102BD0007D1A00085B1A0008231A0008731A0008FF
:102BE000431A000810B558B10268136801F01004C8
:102BF000012101FA04F4A34313600171002010BD08
:102C0000012010BD70B504001BD02068036801F0DE
:102C100010024FF480559540AB4303602068036871
:102C2000012505FA02F29343036061B1E06800F008
:102C300012F82068016821F0005101602571002020
:102C400070BD012070BDA06800F005F82068016823
:102C500021F40051F1E72DE9F0410446876D00F0C1
:102C600035FB064694F835000025022806D0802062
:102C7000606584F834500120BDE8F0812068016867
:102C800021F0160101602068416921F08001416155
:102C9000206C08B9A06C20B12068016821F00801FF
:102CA00001602068016821F0010101600CE000F082
:102CB0000DFB801B052807D920206065032084F8C0
:102CC000350084F83450D7E720680068C007EED19B
:102CD00094F85C103F208840B860012084F83500EB
:102CE00084F834500020C7E790F83510022903D04B
:102CF0008021416501207047052180F8351000686A
:102D0000016821F001010160002070472DE9F843BE
:102D100004464FF00009CDF8009063484FF4165177
:102D2000A56D0068B0FBF1F72E6894F85C100820E0
:102D300000FA01F131420FD021680A6852070BD521
:102D40000A6822F004020A6094F85C108840A860C7
:102D5000606D40F00100606594F85C104FF0010870
:102D600008FA01F0304208D021684969090604D503
:102D7000A860606D40F00200606594F85C1004206B
:102D80008840304208D021680968890704D5A860C6
:102D9000606D40F00400606594F85C10102088407D
:102DA000304218D021680968090714D5A860206846
:102DB0000168490304D50068000308D5A16C07E049
:102DC0000168C90503D4016821F008010160216C84
:102DD00009B12046884794F85C1020208840304292
:102DE00031D021680968C9062DD5A86094F835004E
:102DF00005282068016806D0490347D5006800030C
:102E00001DD4616C1CE021F016010160206841694D
:102E100021F080014161206C08B9A06C20B12068CC
:102E2000016821F00801016094F85C103F2088409F
:102E3000A86084F8358084F83490216D1FE0E16B40
:102E400009B120468847606D00282BD0606DC0070F
:102E500014D0052084F835002068016821F00101B4
:102E600001600098401C0090B84203D820680068B8
:102E7000C007F6D184F8358084F83490E16C0029DD
:102E800010D001B02046BDE8F04308470168C905ED
:102E9000D5D4016821F01001016084F8358084F8F0
:102EA0003490CCE7BDE8F883DCC201202DE9F04185
:102EB000044600F00BFA06465CB1022084F83500A7
:102EC000002584F834502068016821F00101016078
:102ED0000DE00120BDE8F08100F0F8F9801B052825
:102EE00005D920206065032084F83500F2E72068CA
:102EF0000068C007F0D12268116820480140D4E979
:102F000001031843D4E90336334318436369184374
:102F1000A3691843E3691843236A18430843616AA5
:102F2000042903D1D4E90B13194308431060206826
:102F30004069666A20F0070130460E4301270428E5
:102F40000CD1A06A0643E06A40B12046FEF7D8FDE6
:102F500020B14020606584F83570BAE7206846618A
:102F60002046FEF7B9FD94F85C203F219140816036
:102F7000656584F835700020ACE700003F8010F0F4
:102F80002DE9F0410446866D90F8340000250128B3
:102F90000DD0012084F8340094F835700020012F02
:102FA00007D084F8340002252846BDE8F0810220CD
:102FB000FBE7022784F8357060652046FEF7CAFDFE
:102FC00094F85C103F208840B0602068016841F0B0
:102FD00016010160206C20B12068016841F00801F1
:102FE00001602068016841F001010160DCE7000038
:102FF00070B5044600F06AF90546601C02D004482A
:103000000078044400F062F9401BA042FAD370BD7E
:10301000D0C20120F0B587B014216846FDF79BF9B6
:1030200015480168002924D10121016013480024BA
:10303000016841F0010101600068022500F0010013
:1030400005904FF68070CDE9000502AA03260C27F3
:1030500082E8D00069460A4800F02EF84CF6B370BA
:10306000CDE9000502AA694682E8D000054800F0D3
:1030700023F807B0F0BD0000980000203838024067
:1030800000100240000C024010B50446FEF740FF5D
:10309000FEF71CFF2046BDE8104003F0C1BE000053
:1030A000044910B50A68024202D00860FFF7ECFF3D
:1030B00010BD0000143C01402DE9F84FDFF8BCA121
:1030C0000022012503264FF00F090AF1040BAAF193
:1030D000040E00BF0B6805FA02F42340A34270D12E
:1030E0000F7907F00307012F01D0022F16D187684F
:1030F0004FEA420806FA08FC27EA0C07D1F80CC090
:103100000CFA08FC4CEA070CC0F808C04768A74353
:103110000C79C4F3001494403C4344600C79E443BC
:10312000A4070AD0C4684FEA420C06FA0CF7BC4365
:103130008F6807FA0CF72743C7600C7904F0030483
:10314000022C12D1D40800EB840CDCF82040570785
:10315000FF0E09FA07F824EA0804D1F8108008FAEB
:1031600007F848EA0408CCF8208004684FEA420CCB
:1031700006FA0CF7BC430F7907F0030707FA0CF7C0
:10318000274307604C6814F4403F70D03C4C2768DC
:1031900047F480472760246822F0030704F4804442
:1031A0000094384C07EB040CDCF8084897074FEA0A
:1031B000177809FA08F7BC43334FB84202D1002709
:1031C00024E054E0314FB84201D101271EE0304FD6
:1031D000B84201D1022719E02E4FB84201D103278E
:1031E00014E02D4FB84201D104270FE02B4FB84215
:1031F00001D105270AE02A4FB84201D1062705E090
:10320000284FB84201D1072700E0082707FA08F73E
:103210002743CCF80878DAF800405746D1F804C0C4
:103220009C435FEACC2C00D51C433C60DBF800409B
:103230005F46D1F804C09C435FEA8C2C00D51C4348
:103240003C60DEF800407746D1F804C09C435FEA5A
:103250008C3C00D51C433C60084F083F3C68D1F8CB
:1032600004C09C435FEACC3C00D51C433C60521C2C
:10327000102AFFF42FAFBDE8F88F0000083C014092
:103280004438024000300140000002400004024087
:1032900000080240000C02400010024000140240EE
:1032A00000180240001C02400069084000D00120C4
:1032B0007047426921EA02030A4043EA0241816100
:1032C00070470AB1816170470904FBE701488068D3
:1032D00070470000D0C2012070B5040025D094F8DA
:1032E0003D00002520B984F83C50204600F0B8F895
:1032F000242084F83D002068016821F0010101606C
:103300002068016841F4004101602068016821F4EF
:103310000041016000F096FF4D4A6168914201D87A
:103320004C4900E04C49884201D2012070BD4B4914
:103330002368B0FBF1F15E6826F03F060E435E6045
:103340006368934206D94FF4967359434FF47A73E6
:10335000B1FBF3F12368491C1E6A26F03F06314396
:1033600019626168914210D84900401EB0FBF1F229
:10337000521CC2F30B02042A01D2042022E0B0FB4B
:10338000F1F0401CC0F30B001CE0A268F2B301EBAB
:10339000C10303EB0116431EB3FBF6F35B1C43F4BE
:1033A00080431B0549D092B301EBC10202EB01112E
:1033B000401EB0FBF1F0401CC0F30B0040F4804015
:1033C00040F400402168CA694CF6FF739A431043E9
:1033D000C861D4E9071001432068026822F0C002E6
:1033E00011430160D4E9030101432068826848F277
:1033F000FF339A4311438160D4E9050108432168F2
:10340000CA6822F0FF021043C86001E00EE016E037
:103410002068016841F0010101602564202084F8E2
:103420003D00256384F83E50002070BD01EB41064D
:10343000431EB3FBF6F35B1CB3E70120C2E701EBCD
:103440004101401EB0FBF1F0401CC0F30B00B7E798
:10345000A086010080841E0000093D0040420F004C
:1034600010B586B0044614216846FCF774FF134972
:103470002068884220D112480021026842F00202EE
:103480000260006800F002000590C0200090122049
:10349000CDE9010103200390042004906946094806
:1034A000FFF70AFE06481030016841F40011016080
:1034B000006800F40010059006B010BD00540040F4
:1034C000303802400004024002488168027811440A
:1034D00081607047D0C201200B4810B5016841F4EB
:1034E00000710160016841F480610160016841F48C
:1034F00080710160032000F09FF80F2000F006F8B3
:1035000000F050F8002010BD003C024030B50546E8
:103510001F4887B00024016841F480710160006891
:1035200006A900F48070009001A800F065FE0498E0
:10353000A8B100F087FE40001649174AB0FBF1F130
:103540001648491E026040F2E732C0E90324C0E990
:103550000114846101F01CFC040003D015E000F0AC
:1035600071FEE9E70D4801F031FD04000DD12D2079
:1035700000F034F8102D07D2002229462D2000F04B
:103580003BF80748056000E0012407B0204630BD45
:103590004038024040420F00002000408C60012073
:1035A000D4C201200C4882B0016841F4804101601E
:1035B000006800F4804000900748001F016841F057
:1035C000805101600068002200F0805000900F21BF
:1035D000901E02B000F010B844380240002809DB09
:1035E00000F01F02012191404009800000F1E0201D
:1035F000C0F8001170470000F0B40E4B1B680C4679
:10360000C3F30223C3F10705042D00D90425191DB6
:10361000072901D2002300E0DB1E012606FA05F18E
:10362000491E214099409E40761E16403143F0BC11
:1036300006F05BBB0CED00E0064900F007020868ED
:103640004FF6FF03184040EA0220034A1043086087
:10365000704700000CED00E00000FA0570470068BC
:10366000416200207047F0B50368586A39B19C6A1E
:103670004FF4827600EB144400204D1E0AE040EA2D
:10368000024098620FE006EB8007DF59401C04EB14
:103690001744C0B2A842F6D344EA02404FF4807205
:1036A00002EB810158500020F0BDD0F8E00405F095
:1036B000FAB801EBC10200EB8202D0F8E004126A12
:1036C00005F04BB801EBC10200EB8202D0F8E00438
:1036D000D2F8602205F09DB8D0F8E00405F0E5B816
:1036E0000A0601F00F0101EBC10100EB810101D5D8
:1036F000143101E001F51571006805F0CBBF70B51C
:1037000004460B0601F00F0000EBC00104EB810141
:103710004FF001024FF0000502D54A75143103E065
:1037200081F8555201F51571087094F89404012838
:1037300008D084F89424206805F0C6FC84F89454DA
:10374000002070BD022070BD70B5044601F00F006E
:103750002279904201D9012070BD0B0601F00F01C2
:1037600001EBC10104EB81014FF001024FF00005B4
:1037700002D54A75143103E081F8555201F51571EF
:103780008D70087094F89404012808D084F894246B
:10379000206805F00BFE84F89454002070BD0220D0
:1037A00070BD01F00F0101EBC10100EB8100D0F809
:1037B000680270472DE9F04104460F0601F00F0042
:1037C00000EBC00104EB81014FF001064FF0000552
:1037D00002D54E75143103E081F8555201F515718B
:1037E000C2F30A0208708A600B714A7802B14883FA
:1037F000022B00D14D7194F89404012809D084F86B
:103800009464206805F0AEFB284684F89454BDE823
:10381000F0810220FBE710B501F00F0404EBC401B6
:1038200000EB8101C1E998230023C1F8683281F8D7
:10383000553281F85442837901F51571012B00D17D
:10384000CA618279006805F009FE002010BD70B5DC
:1038500004460D4601F00F002179884201D901206C
:1038600070BD29064FF000064FF0010206D500EBAF
:10387000C00104EB81014A75143107E005EBC50175
:1038800004EB810181F8556201F515718A700870A9
:1038900094F89404012807D084F89424206805F053
:1038A000B1FD280702D007E0022070BDA17904F223
:1038B0009C42206805F04EFD84F89464002070BDA1
:1038C00010B501F00F0404EBC40100EB8101C1E964
:1038D000082300238B6201234B7501F8144F837971
:1038E000012B00D1CA618279006805F0B7FD002084
:1038F00010BD00002DE9FC5F05680446284605F070
:1039000065FF00287DD1206805F08CFF002878D065
:10391000D5F80808C0F30D20C4F8D404206805F0D9
:1039200081FF800704D52068416901F002014161EF
:10393000206805F077FFC10604F29C40009034D562
:103940002068816921F0100181612F6A07F00F0062
:1039500000EBC00004EB8006C7F3434006F5157684
:10396000022802D0062811D01AE047F6F07007426C
:1039700016D0C7F30A1217462846F16805F056FF1D
:10398000F0683844F0607069384408E0082228463E
:10399000009905F04BFF7069C7F30A110844706184
:1039A0002068816941F010018161206805F03AFFCB
:1039B00000034FF0080B4FF0000A4FF001097CD5CF
:1039C0000026206805F00DFF074674E0F80770D068
:1039D000F1B2206805F01EFF8046C00707D005EB56
:1039E0004611C1F8089B3146204603F095FA5FEA7C
:1039F000087024D505EB4611C1F808BB2068016C9E
:103A000000E023E200EB46100191D0F8082BFB4BBD
:103A1000994205D9110403D54FF40041C0F8081BA1
:103A2000204600F00EFBF5490198884207D9A0799D
:103A3000012804D120680121009A05F08BFC5FEA7F
:103A4000C86004D505EB46111020C1F8080B5FEAE9
:103A500088701DD56869000605D5D5F8040840F4BE
:103A60008061C5F8041806EBC60004EB800090F8EE
:103A7000571200F51570012905D180F803A0F1B2A5
:103A8000204600F0E9F905EB46110220C1F8080BC9
:103A90005FEA886004D505EB46102021C0F8081BBA
:103AA0005FEA884005D505EB46104FF40051C0F899
:103AB000081B7F08761C002F88D1206805F0B2FE15
:103AC00040036ED5206805F085FE0746002666E0B7
:103AD000F80762D0F1B2206805F08AFE8046C00780
:103AE00023D006F00F01D5F8342809FA01F18A43F2
:103AF000C5F8342805EB4611C1F80899A0790128CA
:103B00000FD106EBC60004EB8000D0E90721114479
:103B1000016236B9606A20B920680121009A05F077
:103B200019FCF1B22046FFF7C4FD5FEA087003D527
:103B300005EB4611C1F808B95FEAC86004D505EB8A
:103B400046111020C1F808095FEA486004D505EB6A
:103B500046104021C0F808195FEA887016D5314632
:103B6000284605F008FE06EBC60004EB8000C17D88
:103B70001430012905D180F803A0F1B2204600F0ED
:103B800067F905EB46110220C1F808095FEA0860F1
:103B900003D53146204603F025FA7F08761C002F16
:103BA00096D1206805F03EFE002811DAD5F8040809
:103BB00020F00101C5F8041894F8CC0401282BD09A
:103BC000204600F023FA2068416901F0004141617C
:103BD000206805F027FE00050BD5D5F80808C007BA
:103BE00002D0204600F056FA2068416901F40061D5
:103BF0004161206805F016FEC00467D5D5F80408B9
:103C000020F00100C5F804081021206805F0B3FD7C
:103C100000214FF67F3220E084F8CCA4002120461A
:103C2000FFF71CFDCFE700BF05EB4110C0F80829E6
:103C3000D0F8003923F40013C0F80039C0F8082B7D
:103C4000D0F8003B23F40013C0F8003BD0F8003B51
:103C500043F00063C0F8003B491C20798842E3D858
:103C6000D5F81C0840F00111C5F81C18E07B0028AD
:103C700028460DD0D0F8840840F00B01C5F8841810
:103C8000D5F8440840F00B012846C5F844180DE06B
:103C9000D0F8140842F22B010843C5F81408D5F8EF
:103CA000100840F00B012846C5F81018D0F800089D
:103CB00020F4FE61C5F80018A1792068009A05F08B
:103CC00049FB2068416901F480514161206805F099
:103CD000A9FD800415D5206805F084F9206805F059
:103CE00068FDE07100F0A8FA0146E279206805F06D
:103CF000FBFD204600F074F92068416901F4005191
:103D00004161206805F08EFD000707D5204600F0D0
:103D100081F92068416901F008014161206805F0DE
:103D200081FD000616D5A86920F08001A961012651
:103D30000DE000BF06EBC60004EB800090F85702D0
:103D4000012803D1F1B22046FFF7CAFC761C207986
:103D5000B042EFD8206805F065FDC0021FD50126EE
:103D60004F4614E005EB4610D0F8000906EBC601FB
:103D700004EB81010A7E012A08D1002806DACF75FA
:103D8000F0B240F080012046FFF7AAFC761C2079B3
:103D9000B042E7D82068416901F480114161206890
:103DA00005F040FD800234D501204A4629E000BFDD
:103DB00005EB4011D1F8001B00EBC00304EB8303BB
:103DC00093F85862012E1BD1002919DA94F8D464B3
:103DD000C1F3004106F001068E4211D183F857224B
:103DE000A96941F08003AB616969090608D4D5F877
:103DF000040840F40070C5F8040805E00A30544F88
:103E0000401C21798142D3D82068416901F4001116
:103E10004161206805F006FD400007D52046FFF708
:103E200044FC2068416901F080414161206805F04F
:103E3000F9FC40070AD520684568680702D5204686
:103E4000FFF74AFC2068416829434160BDE8FC9FB8
:103E5000D0F8E00404F07BBDD0F8E00404F08BBDA2
:103E6000F8B5040005D094F895042668002510B133
:103E700006E00120F8BD84F89454204600F056F87E
:103E8000032084F89504B6F1A04F00D1A5712068F5
:103E900005F05AFA207C8DF8000094E80F0005F038
:103EA000AFF80226B8BB0021206805F0DEFC90BB0D
:103EB000002001270DE000BF00EBC00104EB8101F1
:103EC0004F750875C8850D76CD610D62401CC0B276
:103ED0004D6221798142EFD8002011E000EBC00152
:103EE00004EB810181F8555281F8540281F858524F
:103EF000C1F85C52C1F86052401CC0B2C1F86452B3
:103F000021798142EAD8207C8DF8000094E80F00E6
:103F100005F05CF910B184F89564AAE7657484F83B
:103F20009574206805F044F90020F8BDF0B58BB019
:103F30000446142105A8FCF70EFA2068B0F1A04F42
:103F400048D1254C0025206840F001002060206801
:103F5000142100F001000A906846FCF7FCF9A01457
:103F60000090012002260395CDE901061B4F69460A
:103F70003846FFF7A1F80520FFF73AF8206840F02F
:103F8000010020602068694600F001000A904FF4AB
:103F9000C050CDE900060320CDE902500A2004906C
:103FA0003846FFF789F8201D016841F08001016063
:103FB00009481430016841F4804101600068002222
:103FC00000F480400A9005214320FFF715FB4320B1
:103FD000FFF704FB0BB0F0BD303802400000024098
:103FE00070B50446C079012570B1022801D0FDF7F3
:103FF000DFFF2946D4F8E00404F02CFDD4F8E004F7
:10400000BDE8704004F0E0BC0025F2E7D0F8E00421
:1040100004F009BDD0F8E00404F00FBD10B504466B
:1040200090F8940401280AD0012084F89404617463
:10403000206805F048FC002084F8940410BD02209C
:1040400010BDD0F8E02400F29C41104604F00EBDF3
:1040500010B50446006894F89414012909D0012190
:1040600084F89414C168490609D5617B012902D0FE
:1040700005E0022010BD816B41F48031816320682E
:1040800005F057FB206805F085F8002084F89404BB
:1040900010BD000010B50446D0F8E00404F028FD7F
:1040A0002068D0F8001E41F00101C0F8001EE07A3F
:1040B000002804D00248016841F00601016010BDEB
:1040C00010ED00E02DE9F0470E46050065D0DFF861
:1040D0001481D8F80000F7B200F00700B04207D210
:1040E00088F80070D8F8000000F00700B04254D102
:1040F00028683D4C810712D5400703D5206840F45D
:10410000E05020602878000703D5206840F4604024
:1041100020602068A96820F0F0000843206028781B
:10412000C0072DD0304968680839012812D002280C
:1041300013D0032811D00968890700292DDA2168D6
:1041400021F0030101432160FFF7C0F8814641F2ED
:10415000883A0EE009688903EFE709688901ECE70E
:10416000FFF7B4F8A0EB0901514502D90320BDE8DF
:10417000F0872068696800F00C00B0EB810FEFD188
:10418000D8F80010404601F00701B14207D9077086
:10419000006800F00700B04201D00120E7E728786E
:1041A000400705D52068E96820F4E0500843206006
:1041B0002878000706D52068296920F4604040EA85
:1041C000C100206000F05EF82168084AC1F30311C5
:1041D000515CC8400649086006480068FFF796F938
:1041E0000020C4E7003C024008380240246C01086B
:1041F000DCC20120D4C201200F2202600C4A1368E5
:1042000003F003034360136803F0F0038360136853
:1042100003F4E053C36012684FF4E05303EAD202A0
:1042200002610448006800F0070008607047000061
:1042300008380240003C0240014800687047000016
:10424000DCC201200448054900680968044AC1F33A
:104250008221515CC8407047DCC20120083802400E
:10426000346C01080448054900680968044AC1F330
:104270004231515CC8407047DCC20120083802401E
:10428000346C0108154810B5006810F00C02144891
:1042900013D04110042A0FD0082A0ED10F4C241F2E
:1042A0002268236802F03F025B0207D52068C0F352
:1042B0008810A0FB010106E0084610BD2168C1F38B
:1042C0008811A1FB00010023FBF7E8FF2168C1F37F
:1042D0000141491C4900B0FBF1F010BD0838024013
:1042E0000024F4002DE9F84F04006ED02078DFF8A8
:1042F0004C93C007A9F104054AD009F104000168F4
:10430000C1F38101012908D00068C0F381000228AF
:104310000AD1D9F80000400206D52868800337D5B5
:1043200060680028E1D033E06068B0F5803F10D0CD
:10433000B0F5A02F286810D020F4803028602868BD
:1043400020F4802028606068A8B1FEF7BFFF064611
:104350000DE0286840F48030F4E740F480202860C5
:10436000F7E700BFFEF7B2FF801B642873D8286808
:104370008003F7D50CE0FEF7A9FF064605E000BF75
:10438000FEF7A4FF801B6428F0D828688003F7D4C8
:104390002078DFF8AC8280074FF0000A3ED5A748AE
:1043A000001D016811F00C0F08D00068C0F38100F7
:1043B00002280BD1D9F80000400207D428688007F2
:1043C00016D5E068012800D112E033E1E068B8B109
:1043D0000120C8F80000FEF779FF064605E000BF9F
:1043E000FEF774FF801B0228C0D828688007F7D525
:1043F0002868216920F0F80040EAC10028600DE03B
:10440000C8F800A0FEF762FF064604E0FEF75EFF74
:10441000801B02281FD828688007F7D4207800075F
:1044200022D5864F87486169703771B101210160DB
:10443000FEF74CFF064604E0FEF748FF801B02280B
:1044400009D838688007F7D50EE0C0F800A0FEF75D
:104450003DFF064605E082E0FEF738FF801B02289C
:104460007DD838688007F7D42078400768D5DFF812
:10447000CCB100270BF13C0BDBF80000C0000BD4E3
:10448000DBF8001041F08051CBF80010DBF80000A1
:10449000012700F0805000906B4E3068C00510D4AA
:1044A000306840F480703060FEF710FF009005E047
:1044B000FEF70CFF0099401A022850D83068C0055A
:1044C000F6D55E4EA0686C3601280FD005283068FE
:1044D00010D020F001003060306820F0040030601F
:1044E000A068B8B1FEF7F2FE00900FE0306840F02F
:1044F0000100F4E740F004003060F7E7FEF7E6FE65
:104500000099411A41F28830814266D830688007AC
:10451000F4D50EE0FEF7DAFE009007E0FEF7D6FED7
:104520000099411A41F28830814256D8306880079C
:10453000F4D42FB1DBF8001021F08051CBF800103B
:10454000A069C8B33D49091D0968C1F38101022969
:104550004AD00228504607D0C8F8600000E03CE08E
:10456000FEF7B4FE04463BE04746C8F86000FEF79D
:10457000ADFE064605E000BFFEF7A8FE801B022840
:104580002BD828688001F7D4D4E907010843A16A31
:104590002E4A490802EB0141626A41EA821108434E
:1045A00094F82C1040EA0161C9F800100120386627
:1045B000FEF78CFE044606E03EE000BFFEF786FEF6
:1045C000001B022809D828688001F7D534E000BF15
:1045D000FEF77CFE001B022802D90320BDE8F88FFD
:1045E00028688001F4D427E00128F7D0D9F800002A
:1045F000E26900F4800191421CD1226A00F03F017F
:10460000914217D147F6C071626A0140B1EB821F37
:1046100010D1A26A4FF0FF3300F4403103EB520295
:10462000B1EB024F06D194F82C1000F07060B0EBA3
:10463000016F01D00120D1E70020CFE7043802400C
:1046400000004742800E4742007000400000FFFF1C
:1046500070B5040009D0606A002540B1256165612C
:10466000A56294F8510040B10CE0012070BD606873
:10467000B0F5827FF4D0E561F2E784F8505020462F
:1046800000F044F8022084F851002068016821F00D
:1046900040010160A088218900F4827001F4044186
:1046A0000843A18901F400610843217C01F0020163
:1046B0000843217D01F001010843218B01F40071C1
:1046C0000843217F01F03801084394F8201001F0DD
:1046D00080010843218D01F40051084321680860DE
:1046E000A069042101EA104094F8241001F010019F
:1046F0000843216848602068C16921F40061C161F4
:104700006565012084F85100002070BDF0B587B0C8
:10471000044614216846FBF71EFE1C4920688842A7
:1047200032D11B480024016841F4804101600068D7
:1047300000F48040059016481038016841F00401EB
:104740000160016801F004010591016841F0020176
:1047500001600068022500F0020005900C20CDE900
:10476000000502AA0326052782E8D0006946094809
:10477000FEF7A2FC6802CDE9000502AA694682E8BC
:10478000D0000548FEF798FC07B0F0BD00380040A7
:104790004038024000080240000402402DE9F84F72
:1047A000044690F851001D4616460F46012838D1A0
:1047B000002F77D0002E75D060684FF00408B0F558
:1047C000827F01D1A06810B3FEF780FD824694F885
:1047D0005000012825D04FF0010984F8509084F84A
:1047E00051804FF00008C4F85480A763A687E6877D
:1047F000C4F83080A4F83480A4F83680C4F840802F
:10480000C4F84480A068B0F5004F0CD015E084F8DF
:104810005180009313460A46204600F01CF9BDE87B
:10482000F88F0220FBE72068016821F04001016059
:104830002068016821F48041016020680168490610
:1048400003D4016841F040010160E068C0B134E088
:1048500020688168C90709D0007BA16B0870A06B34
:10486000401CA063E08F401EE08709E0FEF72EFDAC
:10487000A0EB0A00A84202D3681C01D032E085B345
:10488000E08F0028E4D11BE020688168C9070AD0C6
:10489000C068A16B0880A06B801CA063E08F401EE5
:1048A000E0870AE01BE0FEF711FDA0EB0A00A8423A
:1048B00002D3681C01D015E09DB1E08F0028E3D140
:1048C00052462946204602F02BFC08B120206065A4
:1048D00084F8519084F85080606D00289FD00120AA
:1048E0009DE7FFE784F8519084F85080032096E715
:1048F0002DE9F84F984616468A460446FEF7E6FC30
:10490000814694F8510001281ED1BAF1000F73D0EE
:10491000002E71D094F85000012815D0012784F89A
:104920005070032084F8510000256565C4F830A05C
:10493000A686E686A563A587E58765642564A068E5
:10494000B0F5004F03D00CE00220BDE8F88F2068DE
:10495000016821F0400101602068016841F4804154
:10496000016020680168490603D4016841F04001F4
:104970000160E068B0F5006F606803D048B3012EB5
:1049800027D047E008B1012E1FD1206B2168008895
:10499000C86006E020688168890709D5216B09880D
:1049A000C160206B801C2063E08E401EE0860CE01E
:1049B000FEF78CFCA0EB0901414503D3B8F1FF3FA2
:1049C00003D035E0B8F1000F32D0E08E0028E1D1FD
:1049D00023E0206B21680078087306E02068816876
:1049E00089070AD5216B09780173206B401C20636D
:1049F000E08E401EE0860DE02BE0FEF767FCA0EBAA
:104A00000901414503D3B8F1FF3F03D010E0B8F1ED
:104A1000000F0DD0E08E0028E0D14A4641462046E6
:104A200002F0ACFB08B120206065A06830B109E05D
:104A300084F8517084F85050032086E72068C168DC
:104A40008068009084F8517004F8505F6068002816
:104A5000F3D0012079E72DE9FF4F81B01D46934641
:104A600004464FF001090E9EFEF730FC074694F80D
:104A700051006168012806D0B1F5827F3CD1A16860
:104A8000C9BB042838D10298002871D0BBF1000FAF
:104A9000FBD0002DF9D094F8500001282CD04FF015
:104AA000010A84F850A094F85100042802D005208F
:104AB00084F851004FF00008C4F85480C4F838B0AE
:104AC000E587A58702992163E586A586C4F840801D
:104AD000C4F8448020680168490603D4016841F0A5
:104AE00040010160E068B0F5006F606808D0F0B385
:104AF000012D49D081E0FFE7022005B0BDE8F08F2D
:104B000008B1012D39D1206B21680088C860206B65
:104B1000801C2063E08E401EE0862EE020688168C5
:104B200089070FD5E18E69B1B9F1010F0AD1216B67
:104B30000988C160206B801C2063E08E401EE086E7
:104B40004FF0000920688168C9070CD0E18F51B18E
:104B5000C068A16B0880A06B801CA063E08F401E22
:104B6000E0874FF00109FEF7B1FBC01B01E00BE04D
:104B700067E0B04201D3701C50D1E08E0028CDD147
:104B8000E08F0028CAD13EE0206B216800780873CE
:104B9000206B401C2063E08E401EE0862DE02068E4
:104BA000816889070FD5E18E69B1B9F1010F0AD18A
:104BB000216B09780173206B401C2063E08E401E3E
:104BC000E0864FF0000920688168C9070CD0E18FAA
:104BD00051B1C068A16B0870A06B401CA063E08F4E
:104BE000401EE0874FF00109FEF770FBC01BB0428A
:104BF00002D3701C01D011E086B1E08E0028CED126
:104C0000E08F0028CBD13A463146204602F0B6FA72
:104C100050B12020606584F8508012E084F851A0E3
:104C200084F85080032068E7A06818B92068C1683C
:104C30008068009084F851A084F85080606D00284E
:104C4000F1D0012059E770B515460E46040003D097
:104C500094F8490010B107E0012070BD002084F8ED
:104C60004800204600F01DF804F108012068FDF717
:104C7000BFF93146A2682068FDF7EEF9D4E90102D8
:104C80002946236BFDF796F92168A06851F820208A
:104C900042F0010241F82020012084F84900002060
:104CA00070BDFEF7B7B97047704710B590F83C205B
:104CB000012A22D0012280F83C20CA688C6822F4A4
:104CC000407222434C6822F4806222430C6822F432
:104CD000006222430C6922F4805222434C6922F480
:104CE00000522243C969002322F480420A4301682A
:104CF0004A6480F83C30002010BD022010BD000046
:104D000070B590F83C20012A32D0012480F83C4054
:104D1000022280F83D2003685A689D6822F07006E0
:104D20000A6832435A60134B02689A4214D0B2F1B7
:104D3000804F11D0104B9A420ED0104B9A420BD09C
:104D40000F4B9A4208D00F4B9A4205D00E4B9A4215
:104D500002D00E4B9A4204D1496825F080031943D2
:104D6000916080F83D40002180F83C10084670BDFD
:104D7000022070BD00000140000400400008004017
:104D8000000C0040000401400040014000180040B9
:104D900010B5040003D094F83D0010B107E00120E5
:104DA00010BD002084F83C00204600F01FF80220CF
:104DB00084F83D00211D206802F01CFD012084F8CC
:104DC000460084F83E0084F83F0084F8400084F8F0
:104DD000410084F8420084F8430084F8440084F8D9
:104DE000450084F83D00002010BD000010B586B0DD
:104DF000044614216846FBF7AEFA226800214B48AE
:104E0000B2F1804F0AD04A498A4228D1016841F064
:104E100010010160006800F010002AE0026842F012
:104E200001020260006800F0010005903F48103860
:104E3000026842F001020260006800F00100059083
:104E40004FF4004000900220CDE901010120CDE99E
:104E5000031069463748FEF72FF906B010BD3649F2
:104E60008A4208D1016841F020010160006800F029
:104E700020000590F1E72D49304B091D9A420ED1D3
:104E8000086840F0020008600868002200F0020094
:104E900005900F212D20FEF7AFFB2D2010E0284BB1
:104EA0009A4210D1086840F48030086008680022F7
:104EB00000F48030059005211820FEF79DFB182096
:104EC000FEF78CFBC9E71F4B9A4207D1086840F4F4
:104ED00000300860086800F40030CAE71A4B9A42B4
:104EE0000ED1086840F4802008600868002200F4B1
:104EF0008020059005211A20FEF77EFB1A20DFE7AF
:104F000012498A4207D1016841F0400101600068FE
:104F100000F04000ADE70E498A429ED1016841F0A1
:104F200080010160006800F08000A2E74038024084
:104F30000010004000000240001400400004014046
:104F4000004001400044014000480140001800407A
:104F5000001C004090F83D10012901D0012070474D
:104F6000022180F83D1000681149884214D0B0F148
:104F7000804F11D00F4988420ED00F4988420BD084
:104F80000E49884208D00E49884205D00D49884212
:104F900002D00D49884204D1816801F00701062939
:104FA00003D0016841F0010101600020704700005A
:104FB000000001400004004000080040000C0040D8
:104FC00000040140004001400018004090F83D10EE
:104FD000012901D001207047022180F83D100168AD
:104FE000CA6842F00102CA6000681149884214D0C0
:104FF000B0F1804F11D00F4988420ED00E4988423F
:105000000BD00E49884208D00D49884205D00D4981
:10501000884202D00C49884204D1816801F007011E
:10502000062903D0016841F00101016000207047AA
:10503000000001400004004000080040000C004057
:1050400000040140004001400018004001680A6A65
:1050500041F211131A4207D10A6A9B101A4203D176
:105060000A6822F001020A60012180F83D10002048
:10507000704770B5044690F83C000025012817D011
:10508000012684F83C60022084F83D002068826894
:1050900022F0770222F47F4282600868502838D0DC
:1050A0000DDC20284FD005DC90B3102811D14AE048
:1050B000022070BD302846D040280AD13BE060284D
:1050C0002FD070280DD0B0F5805F03D0B0F5005F11
:1050D00012D0012584F83D60002084F83C00284669
:1050E00070BDCB68D1E90121206802F0F8FB20688F
:1050F000816841F0770109E0CB68D1E9012120689E
:1051000002F0EDFB2068816841F480418160E1E7B5
:1051100019E0CA684968206802F0D6FC502120686E
:1051200006E0CA684968206802F020FD6021206816
:1051300002F000FCCEE7CA684968206802F0C4FCAF
:1051400040212068F4E7226801461046F0E77047E6
:105150002DE9F041054690F83C0000260C46012858
:1051600010D0012085F83C0072B1042A1CD0082A16
:105170002CD00C2A50D00126002085F83C00304667
:10518000BDE8F0810220FBE7D4E90012E36828685B
:1051900002F0ACFC2868816921F00C01816128686B
:1051A0008169A26811430FE0D4E90012E36828681E
:1051B00002F0EEFC2868816921F440618161286871
:1051C0008169A26841EA02218161D5E72868D4E9B2
:1051D000002C277B036A016A21F480710162C16996
:1051E00023F4206321F0030141EA0C0121F0F00CCB
:1051F00039074FF420674CEA116107EA02221A438B
:10520000C16102622868C16921F00C01C16128688E
:10521000C169A26811432BE02868D4E90021E7683E
:10522000036AD0F820C02CF4805CC0F820C0D0F80D
:105230001CC023F420432CF4407C4CEA012121F4CF
:10524000704C4FF6FF7101EA07314FF4204741EAF5
:105250000C0107EA02321A43C16102622868C1697F
:1052600021F44061C1612868C169A26841EA022154
:10527000C16181E710B5040003D094F83D0010B17E
:1052800007E0012010BD002084F83C00204600F01B
:105290001FF8022084F83D00211D206802F0AAFAC0
:1052A000012084F8460084F83E0084F83F0084F82A
:1052B000400084F8410084F8420084F8430084F8F8
:1052C000440084F8450084F83D00002010BD000033
:1052D00030B587B0044614216846FBF73CF81B49FB
:1052E0002068884230D11A480024016841F0020148
:1052F0000160006800F00200059015481038016850
:1053000041F004010160016801F0040105910168A8
:1053100041F0020101600068022500F002000590E2
:1053200080200090CDE9015469460A48CDE9034543
:10533000FDF7C2FE10200090CDE9015469460648F1
:10534000CDE90345FDF7B8FE07B030BD00040040CD
:105350004038024000080240000402402DE9F041BC
:1053600004460068C66805694FF00007A90713D511
:10537000B10711D5F91E01610120207720688069ED
:105380008007204602D0FFF7E2FE04E000F0DCF8E0
:10539000204600F06EF92777680716D5700714D5F8
:1053A00021686FF00400086102202077206880697E
:1053B00010F4407F204602D0FFF7C9FE04E000F061
:1053C000C3F8204600F055F92777280715D5300790
:1053D00013D521686FF00800086104202077206849
:1053E000C0698007204602D0FFF7B1FE04E000F05C
:1053F000ABF8204600F03DF92777E80616D5F00611
:1054000014D521686FF0100008610820207720680B
:10541000C06910F4407F204602D0FFF798FE04E0F8
:1054200000F092F8204600F024F92777E80708D02A
:10543000F00706D021686FF001000861204600F0F7
:10544000BBF9280608D5300606D521686FF0800024
:1054500008612046FFF727FC680608D5700606D5C8
:1054600021686FF040000861204600F0C1F9A806ED
:105470000AD5B00608D521686FF0200008612046E3
:10548000BDE8F041FFF710BCBDE8F08170B586B013
:10549000044614216846FAF75EFF2468234E002272
:1054A0002349022303252348B44209D10C6844F060
:1054B00002040C60096801F00201059199030BE0F8
:1054C0001D4EB44212D10C6844F002040C6009680D
:1054D00001F002010591B1150091CDE90132694653
:1054E000CDE90325FDF7E8FD06B070BD134E092593
:1054F000B44209D10C6844F002040C60096801F060
:10550000020105913114E7E70D488442ECD10868A7
:1055100040F0010008600868694600F0010005904D
:1055200040200090CDE901320648D9E7000401404F
:10553000303802400004024000440140001800409E
:10554000001C004000000240704770B5044690F80F
:105550003C0000260D4601280FD0012084F83C00B5
:105560006AB1042A1DD0082A2FD00C2A3FD0012668
:10557000002084F83C00304670BD022070BD2068D9
:1055800002F0E0F92068816941F00801816120683A
:10559000816921F004018161206881692A691143D0
:1055A00011E0206802F0FEF92068816941F4006191
:1055B00081612068816921F480618161206881694D
:1055C0002A6941EA02218161D2E7206802F020FACB
:1055D0002068C16941F00801C1612068C16921F0FA
:1055E0000401C1612068C1692A69114311E0206882
:1055F00002F042FA2068C16941F40061C16120688B
:10560000C16921F48061C1612068C1692A6941EAE8
:105610000221C161ACE710B5040003D094F83D004D
:1056200010B107E0012010BD002084F83C002046A6
:1056300000F01EF8022084F83D00211D206802F0D1
:10564000D9F8012084F8460084F83E0084F83F0031
:1056500084F8400084F8410084F8420084F8430054
:1056600084F8440084F8450084F83D00002010BD13
:105670007047704710B50446022249B104290ED084
:10568000082913D094F84100012816D0012010BD3C
:1056900094F83E000128F9D184F83E200FE094F8F8
:1056A0003F000128F2D184F83F2008E094F8400040
:1056B0000128EBD184F8402001E084F84120012248
:1056C000206802F0FFF816492068164A884201D087
:1056D000904203D1436C43F4004343642068884202
:1056E00013D0B0F1804F10D00F4988420DD00F4930
:1056F00088420AD00E49884207D0904205D00D4911
:10570000884202D00C49884204D1816801F0070127
:10571000062903D0016841F001010160002010BD9D
:105720000000014000040140000400400008004067
:10573000000C0040004001400018004030B5044615
:105740000D460068002202F0BDF8194B41F211111C
:1057500020688A10984202D0164B984209D1036AF9
:105760000B4206D1036A134203D1436C23F4004376
:1057700043642068036A0B4206D1016A114203D1D7
:10578000016821F00101016001203DB1042D08D024
:10579000082D09D084F84100002030BD84F83E0077
:1057A000FAE784F83F00F7E784F84000F4E70000E8
:1057B000000001400004014010B50446006809499A
:1057C000884201D1FDF780FE07492068884207D151
:1057D0000648D0E90012491C42F10002C0E900125B
:1057E00010BD00000020004000480140A0C1012081
:1057F0007047704770470000F8B5016804460868B4
:10580000CA684B6910F00F0F4FF0000559D003F034
:10581000010602F49077374365D0C10705D0D10562
:1058200003D5616C41F001016164410705D5D907D9
:1058300003D0616C41F002016164810705D5D9078D
:1058400003D0616C41F004016164010707D502F0E7
:105850002001314303D0616C41F008016164616C47
:1058600000293AD0800604D5900602D5204602F0E1
:10587000D8F920684069616CC0F38010090700D432
:1058800060B3204602F0A6F920684069400621D5A1
:105890002068143050E8001F21F0400140E8001259
:1058A000002AF5D1E06BA8B172490165E06BFDF704
:1058B0001BFA002811D0E06B016D01B0BDE8F0408B
:1058C000084783060FD593060DD52046BDE8F8405E
:1058D00002F0A7B92046FFF78DFFF8BD2046FFF77D
:1058E00089FF6564F8BD266B2023012E7ED1C60694
:1058F0007CD5D6067AD508684868009048694FF08C
:10590000020640064DD5E26B106840684FF4807780
:105910000004000C3AD0A18D814237D9E085D069CE
:10592000B8422DD020680C3050E8001F21F480715F
:1059300040E80012002AF5D12068143050E8001F1A
:1059400021F0010140E80012002AF5D1206814304E
:1059500050E8001F21F0400140E80012002AF5D174
:1059600084F84230256320680C3050E8001F21F095
:10597000100140E80012002AF5D1E06BFDF76BF949
:105980006663A08DE18D401A81B206E0A18D81424F
:10599000A8D1D069B842A5D166632046FFF729FF98
:1059A000F8BDA08DE18D401A81B2E08D0028F7D0BE
:1059B0000029F5D020680C3050E8002F22F49072B6
:1059C00040E80027002FF5D12068143050E8002F60
:1059D00022F0010240E80027002FF5D184F8423080
:1059E000256320680C3050E8002F00E006E022F02C
:1059F000100240E80023002BF3D1CDE705062BD59C
:105A0000150629D594F841002128C9D1A068B0F520
:105A1000805F01D12069B0B1206A411C21622168F8
:105A200000784860E08C401E0004000CE084B7D190
:105A30002068C16821F08001C1602068C16841F020
:105A40004001C160F8BD206A0088C0F308004860CA
:105A5000206A801C2062E5E74006F3D55006F1D5A8
:105A6000CA68204622F04002CA6084F8413000F043
:105A7000E9F8F8BDC77B000870B5040004D094F8BD
:105A80004100002510B106E0012070BD84F84050AF
:105A9000204600F023F8242084F841002068C168E3
:105AA00021F40051C160204602F01CF92068016910
:105AB00021F4904101612068416921F02A0141618E
:105AC0002068C16841F40051C1606564202084F8F9
:105AD000410084F842006563002070BD10B586B0B7
